{
  "_format": "hh-sol-artifact-1",
  "contractName": "StartupRegistry",
  "sourceName": "contracts/StartupRegistry.sol",
  "abi": [
    {
      "anonymous": false,
      "inputs": [
        {
          "indexed": true,
          "internalType": "uint256",
          "name": "startupId",
          "type": "uint256"
        },
        {
          "indexed": true,
          "internalType": "address",
          "name": "founder",
          "type": "address"
        },
        {
          "indexed": false,
          "internalType": "string",
          "name": "name",
          "type": "string"
        },
        {
          "indexed": false,
          "internalType": "bytes32",
          "name": "startupHash",
          "type": "bytes32"
        }
      ],
      "name": "StartupRegistered",
      "type": "event"
    },
    {
      "inputs": [
        {
          "internalType": "uint256",
          "name": "",
          "type": "uint256"
        },
        {
          "internalType": "uint256",
          "name": "",
          "type": "uint256"
        }
      ],
      "name": "capTables",
      "outputs": [
        {
          "internalType": "address",
          "name": "holder",
          "type": "address"
        },
        {
          "internalType": "uint256",
          "name": "shares",
          "type": "uint256"
        }
      ],
      "stateMutability": "view",
      "type": "function"
    },
    {
      "inputs": [
        {
          "internalType": "uint256",
          "name": "startupId",
          "type": "uint256"
        }
      ],
      "name": "getCapTable",
      "outputs": [
        {
          "internalType": "address[]",
          "name": "holders",
          "type": "address[]"
        },
        {
          "internalType": "uint256[]",
          "name": "shares",
          "type": "uint256[]"
        }
      ],
      "stateMutability": "view",
      "type": "function"
    },
    {
      "inputs": [
        {
          "internalType": "uint256",
          "name": "startupId",
          "type": "uint256"
        }
      ],
      "name": "getStartup",
      "outputs": [
        {
          "internalType": "address",
          "name": "founder",
          "type": "address"
        },
        {
          "internalType": "string",
          "name": "name",
          "type": "string"
        },
        {
          "internalType": "uint256",
          "name": "createdAt",
          "type": "uint256"
        },
        {
          "internalType": "bytes32",
          "name": "startupHash",
          "type": "bytes32"
        }
      ],
      "stateMutability": "view",
      "type": "function"
    },
    {
      "inputs": [],
      "name": "nextStartupId",
      "outputs": [
        {
          "internalType": "uint256",
          "name": "",
          "type": "uint256"
        }
      ],
      "stateMutability": "view",
      "type": "function"
    },
    {
      "inputs": [
        {
          "internalType": "string",
          "name": "name",
          "type": "string"
        }
      ],
      "name": "registerStartup",
      "outputs": [
        {
          "internalType": "uint256",
          "name": "",
          "type": "uint256"
        }
      ],
      "stateMutability": "nonpayable",
      "type": "function"
    },
    {
      "inputs": [
        {
          "internalType": "uint256",
          "name": "startupId",
          "type": "uint256"
        },
        {
          "internalType": "address[]",
          "name": "holders",
          "type": "address[]"
        },
        {
          "internalType": "uint256[]",
          "name": "shares",
          "type": "uint256[]"
        }
      ],
      "name": "setCapTable",
      "outputs": [],
      "stateMutability": "nonpayable",
      "type": "function"
    },
    {
      "inputs": [
        {
          "internalType": "uint256",
          "name": "",
          "type": "uint256"
        }
      ],
      "name": "startups",
      "outputs": [
        {
          "internalType": "address",
          "name": "founder",
          "type": "address"
        },
        {
          "internalType": "string",
          "name": "name",
          "type": "string"
        },
        {
          "internalType": "uint256",
          "name": "createdAt",
          "type": "uint256"
        },
        {
          "internalType": "bytes32",
          "name": "startupHash",
          "type": "bytes32"
        }
      ],
      "stateMutability": "view",
      "type": "function"
    }
  ],
  "bytecode": "0x608060405234801561001057600080fd5b50611503806100206000396000f3fe608060405234801561001057600080fd5b506004361061007d5760003560e01c80634ed943db1161005b5780634ed943db146101045780638c218f6714610134578063d91db9a014610165578063f29683ae146101985761007d565b806312cda0301461008257806322047e36146100b35780633286c9dd146100d1575b600080fd5b61009c60048036038101906100979190610977565b6101b4565b6040516100aa929190610a07565b60405180910390f35b6100bb610215565b6040516100c89190610a30565b60405180910390f35b6100eb60048036038101906100e69190610a4b565b61021b565b6040516100fb9493929190610b21565b60405180910390f35b61011e60048036038101906101199190610bd2565b610308565b60405161012b9190610a30565b60405180910390f35b61014e60048036038101906101499190610a4b565b6104b4565b60405161015c929190610d9b565b60405180910390f35b61017f600480360381019061017a9190610a4b565b61066b565b60405161018f9493929190610b21565b60405180910390f35b6101b260048036038101906101ad9190610e7e565b610743565b005b600260205281600052604060002081815481106101d057600080fd5b9060005260206000209060020201600091509150508060000160009054906101000a900473ffffffffffffffffffffffffffffffffffffffff16908060010154905082565b60005481565b6000606060008060006001600087815260200190815260200160002090508060000160009054906101000a900473ffffffffffffffffffffffffffffffffffffffff16816001018260020154836003015482805461027890610f42565b80601f01602080910402602001604051908101604052809291908181526020018280546102a490610f42565b80156102f15780601f106102c6576101008083540402835291602001916102f1565b820191906000526020600020905b8154815290600101906020018083116102d457829003601f168201915b505050505092509450945094509450509193509193565b60008060008081548092919061031d90610fa2565b91905055905060003342868660405160200161033c9493929190611092565b60405160208183030381529060405280519060200120905060405180608001604052803373ffffffffffffffffffffffffffffffffffffffff16815260200186868080601f016020809104026020016040519081016040528093929190818152602001838380828437600081840152601f19601f820116905080830192505050505050508152602001428152602001828152506001600084815260200190815260200160002060008201518160000160006101000a81548173ffffffffffffffffffffffffffffffffffffffff021916908373ffffffffffffffffffffffffffffffffffffffff160217905550602082015181600101908161043e91906112a8565b5060408201518160020155606082015181600301559050503373ffffffffffffffffffffffffffffffffffffffff16827f1af4f05dff56d4c7328bde51731f66e9f736f147482f08fcf612a758bd17578b8787856040516104a1939291906113a7565b60405180910390a3819250505092915050565b6060806000600260008581526020019081526020016000209050808054905067ffffffffffffffff8111156104ec576104eb6110cd565b5b60405190808252806020026020018201604052801561051a5781602001602082028036833780820191505090505b509250808054905067ffffffffffffffff81111561053b5761053a6110cd565b5b6040519080825280602002602001820160405280156105695781602001602082028036833780820191505090505b50915060005b81805490508110156106645781818154811061058e5761058d6113d9565b5b906000526020600020906002020160000160009054906101000a900473ffffffffffffffffffffffffffffffffffffffff168482815181106105d3576105d26113d9565b5b602002602001019073ffffffffffffffffffffffffffffffffffffffff16908173ffffffffffffffffffffffffffffffffffffffff16815250508181815481106106205761061f6113d9565b5b906000526020600020906002020160010154838281518110610645576106446113d9565b5b602002602001018181525050808061065c90610fa2565b91505061056f565b5050915091565b60016020528060005260406000206000915090508060000160009054906101000a900473ffffffffffffffffffffffffffffffffffffffff16908060010180546106b490610f42565b80601f01602080910402602001604051908101604052809291908181526020018280546106e090610f42565b801561072d5780601f106107025761010080835404028352916020019161072d565b820191906000526020600020905b81548152906001019060200180831161071057829003601f168201915b5050505050908060020154908060030154905084565b81819050848490501461078b576040517f08c379a000000000000000000000000000000000000000000000000000000000815260040161078290611454565b60405180910390fd5b6002600086815260200190815260200160002060006107aa91906108cd565b60005b848490508110156108c5576002600087815260200190815260200160002060405180604001604052808787858181106107e9576107e86113d9565b5b90506020020160208101906107fe91906114a0565b73ffffffffffffffffffffffffffffffffffffffff16815260200185858581811061082c5761082b6113d9565b5b90506020020135815250908060018154018082558091505060019003906000526020600020906002020160009091909190915060008201518160000160006101000a81548173ffffffffffffffffffffffffffffffffffffffff021916908373ffffffffffffffffffffffffffffffffffffffff16021790555060208201518160010155505080806108bd90610fa2565b9150506107ad565b505050505050565b50805460008255600202906000526020600020908101906108ee91906108f1565b50565b5b8082111561093357600080820160006101000a81549073ffffffffffffffffffffffffffffffffffffffff02191690556001820160009055506002016108f2565b5090565b600080fd5b600080fd5b6000819050919050565b61095481610941565b811461095f57600080fd5b50565b6000813590506109718161094b565b92915050565b6000806040838503121561098e5761098d610937565b5b600061099c85828601610962565b92505060206109ad85828601610962565b9150509250929050565b600073ffffffffffffffffffffffffffffffffffffffff82169050919050565b60006109e2826109b7565b9050919050565b6109f2816109d7565b82525050565b610a0181610941565b82525050565b6000604082019050610a1c60008301856109e9565b610a2960208301846109f8565b9392505050565b6000602082019050610a4560008301846109f8565b92915050565b600060208284031215610a6157610a60610937565b5b6000610a6f84828501610962565b91505092915050565b600081519050919050565b600082825260208201905092915050565b60005b83811015610ab2578082015181840152602081019050610a97565b60008484015250505050565b6000601f19601f8301169050919050565b6000610ada82610a78565b610ae48185610a83565b9350610af4818560208601610a94565b610afd81610abe565b840191505092915050565b6000819050919050565b610b1b81610b08565b82525050565b6000608082019050610b3660008301876109e9565b8181036020830152610b488186610acf565b9050610b5760408301856109f8565b610b646060830184610b12565b95945050505050565b600080fd5b600080fd5b600080fd5b60008083601f840112610b9257610b91610b6d565b5b8235905067ffffffffffffffff811115610baf57610bae610b72565b5b602083019150836001820283011115610bcb57610bca610b77565b5b9250929050565b60008060208385031215610be957610be8610937565b5b600083013567ffffffffffffffff811115610c0757610c0661093c565b5b610c1385828601610b7c565b92509250509250929050565b600081519050919050565b600082825260208201905092915050565b6000819050602082019050919050565b610c54816109d7565b82525050565b6000610c668383610c4b565b60208301905092915050565b6000602082019050919050565b6000610c8a82610c1f565b610c948185610c2a565b9350610c9f83610c3b565b8060005b83811015610cd0578151610cb78882610c5a565b9750610cc283610c72565b925050600181019050610ca3565b5085935050505092915050565b600081519050919050565b600082825260208201905092915050565b6000819050602082019050919050565b610d1281610941565b82525050565b6000610d248383610d09565b60208301905092915050565b6000602082019050919050565b6000610d4882610cdd565b610d528185610ce8565b9350610d5d83610cf9565b8060005b83811015610d8e578151610d758882610d18565b9750610d8083610d30565b925050600181019050610d61565b5085935050505092915050565b60006040820190508181036000830152610db58185610c7f565b90508181036020830152610dc98184610d3d565b90509392505050565b60008083601f840112610de857610de7610b6d565b5b8235905067ffffffffffffffff811115610e0557610e04610b72565b5b602083019150836020820283011115610e2157610e20610b77565b5b9250929050565b60008083601f840112610e3e57610e3d610b6d565b5b8235905067ffffffffffffffff811115610e5b57610e5a610b72565b5b602083019150836020820283011115610e7757610e76610b77565b5b9250929050565b600080600080600060608688031215610e9a57610e99610937565b5b6000610ea888828901610962565b955050602086013567ffffffffffffffff811115610ec957610ec861093c565b5b610ed588828901610dd2565b9450945050604086013567ffffffffffffffff811115610ef857610ef761093c565b5b610f0488828901610e28565b92509250509295509295909350565b7f4e487b7100000000000000000000000000000000000000000000000000000000600052602260045260246000fd5b60006002820490506001821680610f5a57607f821691505b602082108103610f6d57610f6c610f13565b5b50919050565b7f4e487b7100000000000000000000000000000000000000000000000000000000600052601160045260246000fd5b6000610fad82610941565b91507fffffffffffffffffffffffffffffffffffffffffffffffffffffffffffffffff8203610fdf57610fde610f73565b5b600182019050919050565b60008160601b9050919050565b600061100282610fea565b9050919050565b600061101482610ff7565b9050919050565b61102c611027826109d7565b611009565b82525050565b6000819050919050565b61104d61104882610941565b611032565b82525050565b600081905092915050565b82818337600083830152505050565b60006110798385611053565b935061108683858461105e565b82840190509392505050565b600061109e828761101b565b6014820191506110ae828661103c565b6020820191506110bf82848661106d565b915081905095945050505050565b7f4e487b7100000000000000000000000000000000000000000000000000000000600052604160045260246000fd5b60008190508160005260206000209050919050565b60006020601f8301049050919050565b600082821b905092915050565b60006008830261115e7fffffffffffffffffffffffffffffffffffffffffffffffffffffffffffffffff82611121565b6111688683611121565b95508019841693508086168417925050509392505050565b6000819050919050565b60006111a56111a061119b84610941565b611180565b610941565b9050919050565b6000819050919050565b6111bf8361118a565b6111d36111cb826111ac565b84845461112e565b825550505050565b600090565b6111e86111db565b6111f38184846111b6565b505050565b5b818110156112175761120c6000826111e0565b6001810190506111f9565b5050565b601f82111561125c5761122d816110fc565b61123684611111565b81016020851015611245578190505b61125961125185611111565b8301826111f8565b50505b505050565b600082821c905092915050565b600061127f60001984600802611261565b1980831691505092915050565b6000611298838361126e565b9150826002028217905092915050565b6112b182610a78565b67ffffffffffffffff8111156112ca576112c96110cd565b5b6112d48254610f42565b6112df82828561121b565b600060209050601f8311600181146113125760008415611300578287015190505b61130a858261128c565b865550611372565b601f198416611320866110fc565b60005b8281101561134857848901518255600182019150602085019450602081019050611323565b868310156113655784890151611361601f89168261126e565b8355505b6001600288020188555050505b505050505050565b60006113868385610a83565b935061139383858461105e565b61139c83610abe565b840190509392505050565b600060408201905081810360008301526113c281858761137a565b90506113d16020830184610b12565b949350505050565b7f4e487b7100000000000000000000000000000000000000000000000000000000600052603260045260246000fd5b7f4c656e677468206d69736d617463680000000000000000000000000000000000600082015250565b600061143e600f83610a83565b915061144982611408565b602082019050919050565b6000602082019050818103600083015261146d81611431565b9050919050565b61147d816109d7565b811461148857600080fd5b50565b60008135905061149a81611474565b92915050565b6000602082840312156114b6576114b5610937565b5b60006114c48482850161148b565b9150509291505056fea2646970667358221220b0ee003f6e2297b55db5671a9552f40cc0819e0a3f8e1d815121af50d20b7f9b64736f6c63430008140033",
  "linkReferences": {},
  "deployedLinkReferences": {}
}